:100000000C9462000C948A000C948A000C948A0070
:100010000C948A000C948A000C948A000C948A0038
:100020000C948A000C948A000C948A000C948A0028
:100030000C948A000C948A000C948A000C948A0018
:100040000C94CF030C948A000C9457030C94310346
:100050000C948A000C948A000C948A000C948A00F8
:100060000C948A000C948A000000000023002600F3
:10007000290000000000240027002A0000000000E2
:10008000250028002B0004040404040404040202D4
:100090000202020203030303030301020408102007
:1000A0004080010204081020010204081020000012
:1000B0000008000201000003040700000000000027
:1000C0000000720E11241FBECFEFD8E0DEBFCDBFFF
:1000D00024E0A6E4B3E001C01D92AB36B207E1F71D
:1000E00013E0A0E0B1E0E8EAF2E202C005900D9270
:1000F000A634B107D9F710E0C2E6D0E004C02197DA
:10010000FE010E94400FC136D107C9F70E94540A70
:100110000C9452110C940000CF92DF92EF92FF9258
:100120000F931F93CF93DF936C017A018B01C0E093
:10013000D0E0CE15DF0589F0D8016D918D01D60193
:10014000ED91FC910190F081E02DC6010995892B7C
:1001500011F47E0102C02196ECCFC701DF91CF914F
:100160001F910F91FF90EF90DF90CF900895FC01C9
:10017000538D448D252F30E0842F90E0821B930B0C
:10018000541710F0CF96089501970895FC01918DB2
:10019000828D981761F0828DDF01A80FB11D5D96E9
:1001A0008C91928D9F5F9F73928F90E008958FEF57
:1001B0009FEF0895FC01918D828D981731F0828D0B
:1001C000E80FF11D858D90E008958FEF9FEF089562
:1001D000FC01918D228D892F90E0805C9F4F821BC6
:1001E00091098F739927089581E993E00E94E800AF
:1001F00021E0892B09F420E0822F0895FC01848DF1
:10020000DF01A80FB11DA35ABF4F2C91848D90E040
:1002100001968F739927848FA689B7892C93A0891B
:10022000B1898C9180648C93938D848D981306C0D2
:100230000288F389E02D80818F7D80830895EF927D
:10024000FF920F931F93CF93DF93EC0181E0888F90
:100250009B8D8C8D981305C0E889F989808185FD77
:1002600024C0F62E0B8D10E00F5F1F4F0F73112768
:10027000E02E8C8DE8120CC00FB607FCFACFE8898F
:10028000F989808185FFF5CFCE010E94FE00F1CF74
:100290008B8DFE01E80FF11DE35AFF4FF0820B8FAB
:1002A000EA89FB898081806207C0EE89FF896083CB
:1002B000E889F98980818064808381E090E0DF9122
:1002C000CF911F910F91FF90EF900895CF93DF93FF
:1002D000EC01888D8823C9F0EA89FB89808185FD3E
:1002E00005C0A889B9898C9186FD0FC00FB607FC9F
:1002F000F5CF808185FFF2CFA889B9898C9185FFE0
:10030000EDCFCE010E94FE00E7CFDF91CF9108959F
:1003100080E090E0892B29F00E94F40081110C9478
:1003200000000895833081F028F4813099F0823004
:10033000A1F008958730A9F08830B9F08430D1F465
:10034000809180008F7D03C0809180008F778093A3
:100350008000089584B58F7702C084B58F7D84BDF9
:1003600008958091B0008F7703C08091B0008F7D99
:100370008093B00008951F93CF93DF93282F30E030
:10038000F901E255FF4F8491F901E656FF4FD491F0
:10039000F901EA57FF4FC491CC23C9F0162F811100
:1003A0000E949201EC2FF0E0EE0FFF1FE458FF4F88
:1003B000A591B4918FB7F894111105C09C91ED2FC0
:1003C000E095E92302C0EC91ED2BEC938FBFDF9118
:1003D000CF911F910895CF93DF9390E0FC01E656F3
:1003E000FF4F2491FC01EA57FF4F8491882361F16C
:1003F00090E0880F991FFC01EE58FF4FC591D491F2
:10040000FC01E458FF4FA591B491611109C09FB759
:10041000F8948881209582238883EC912E230BC049
:10042000623061F49FB7F8943881822F80958323DE
:100430008883EC912E2B2C939FBF06C08FB7F89426
:10044000E8812E2B28838FBFDF91CF9108953FB78E
:10045000F89480914D0390914E03A0914F03B09179
:10046000500326B5A89B05C02F3F19F00196A11D8A
:10047000B11D3FBFBA2FA92F982F8827820F911D3A
:10048000A11DB11DBC01CD0142E0660F771F881F81
:10049000991F4A95D1F7089521E0FC0184858F3F8B
:1004A00009F420E0822F08950895CF93DF931F92DF
:1004B000CDB7DEB76983DC01ED91FC910280F38159
:1004C000E02D41E050E0BE016F5F7F4F09950F9036
:1004D000DF91CF910895089580E090E008950E9403
:1004E0003D116115710579F0FB0101900020E9F7DC
:1004F0003197AF01461B570BDC01ED91FC91028057
:10050000F381E02D099480E090E008954F925F928E
:100510006F927F92EF92FF920F931F93CF93DF938F
:10052000CDB7DEB7A1970FB6F894DEBF0FBECDBF33
:100530007C01FA01CB0119A2223008F42AE08E01D5
:100540000F5D1F4F422E512C612C712CBF01A30156
:1005500092010E941E0FF901CA01015011096A306F
:1005600014F4605D01C0695CD8016C93232B242BCB
:10057000252B61F7B801C7010E947102A1960FB641
:10058000F894DEBF0FBECDBFDF91CF911F910F91C9
:10059000FF90EF907F906F905F904F9008958F92B3
:1005A0009F92AF92BF92CF92DF92EF92FF920F9302
:1005B0001F93CF93DF937C01EB016C0182E0C80EA7
:1005C000D11C4701E5E08E0E911C00E010E0F60121
:1005D00041916F0150E060E070E02AE0CE010E949E
:1005E00086025C01E881F9810190F081E02D6EE2E4
:1005F000CE0109958A0D9B1D080F191FC814D90437
:1006000031F7F701458150E060E070E02AE0CE016B
:100610000E948602800F911FDF91CF911F910F9151
:10062000FF90EF90DF90CF90BF90AF909F908F9012
:10063000089563E771E00C9471020F931F93CF93B9
:10064000DF93EC010E9471028C01CE010E9419031C
:10065000800F911FDF91CF911F910F9108950C94FE
:1006600071021F920F920FB60F9211242F933F9396
:100670004F935F936F937F938F939F93AF93BF93AA
:10068000EF93FF9381E993E00E94FE00FF91EF91C9
:10069000BF91AF919F918F917F916F915F914F919A
:1006A0003F912F910F900FBE0F901F9018951F92A2
:1006B0000F920FB60F9211242F938F939F93EF9366
:1006C000FF93E091A103F091A2038081E091A70341
:1006D000F091A80382FD12C090818091AA038F5FE0
:1006E0008F732091AB03821751F0E091AA03F0E0E1
:1006F000EF56FC4F958F8093AA0301C08081FF9134
:10070000EF919F918F912F910F900FBE0F901F909F
:1007100018958F929F92AF92BF92CF92DF92EF92F5
:10072000FF926B017C010E9427024B015C01C11406
:10073000D104E104F104F1F00E942702DC01CB01B5
:1007400088199909AA09BB09883E9340A105B105FA
:1007500070F321E0C21AD108E108F10888EE880E92
:1007600083E0981EA11CB11CC114D104E104F10462
:1007700019F7DDCFFF90EF90DF90CF90BF90AF9053
:100780009F908F9008952FB7F894609149037091CE
:100790004A0380914B0390914C032FBF08951F9201
:1007A0000F920FB60F9211242F933F938F939F9325
:1007B000AF93BF938091490390914A03A0914B035B
:1007C000B0914C033091480323E0230F2D3720F4E0
:1007D0000196A11DB11D05C026E8230F0296A11D9B
:1007E000B11D209348038093490390934A03A0933B
:1007F0004B03B0934C0380914D0390914E03A09115
:100800004F03B09150030196A11DB11D80934D037C
:1008100090934E03A0934F03B0935003BF91AF91B9
:100820009F918F913F912F910F900FBE0F901F902E
:100830001895CF92DF92EF92FF920F931F93CF9371
:10084000DF93C5EBD0E001EA10E03DE8E32E30E0B5
:10085000F32EFE018491F801C490F701D490DD20BD
:1008600079F081110E9492018D2D90E0880F991FDF
:1008700088599F4FFC01A591B4918C91C82249F7EA
:10088000DF91CF911F910F91FF90EF90DF90CF906C
:100890000895CF93DF931F92CDB7DEB78983898107
:1008A0008EBD00000DB407FEFDCF8EB52AE030E00E
:1008B000000021503109E1F70F90DF91CF910895A9
:1008C000CF93DF93D82FC62F80EE0E944904E3E236
:1008D000F0E03197F1F78D2F8F770E9449048C2F2C
:1008E0000E944904C11105C08EEEDF91CF910C9496
:1008F0004904DF91CF910895CF92DF92EF92FF925A
:100900000F931F93CF93DF931F92CDB7DEB7E82EDF
:100910008B01F42E812F99830E944904802F0E941D
:100920004904CE2C9981D92E0C0D1D1DC016D1065F
:1009300031F0F60181916F010E944904F7CFF1E097
:10094000FF120CC08EEE0F90DF91CF911F910F918F
:10095000FF90EF90DF90CF900C9449040F90DF91BF
:10096000CF911F910F91FF90EF90DF90CF9008955E
:10097000DF92EF92FF920F931F93CF93DF937C014F
:10098000C62FD42E862F0E9449048701D0E0C801CB
:100990008E199F098C179D0734F4F80181918F01FE
:1009A0000E944904F4CFF1E0DF120AC08EEEDF911D
:1009B000CF911F910F91FF90EF90DF900C9449041D
:1009C000DF91CF911F910F91FF90EF90DF900895ED
:1009D000CF93DF93EC018FEF0E94490488838AE074
:1009E00090E000000197E9F7DF91CF910895CF9350
:1009F000DF931F92CDB7DEB71982CE0101960E9418
:100A0000E80489810F90DF91CF91089561E08AE039
:100A10000C94BB0160E08AE00C94BB01CF93CFB78C
:100A2000F89480914703811127C0E0E9F0E08491B8
:100A3000E4EAF0E09491E82FF0E0EE0FFF1FEE58AB
:100A4000FF4FA591B491EC91E92321F461E08AE094
:100A50000E94BB0161E08AE00E94EB018CB58061DD
:100A60008CBD8CB580648CBD61E08DE00E94EB0193
:100A700061E08BE00E94EB01809147038F5F8093E0
:100A80004703CFBF61E08AE00E94EB0160E087E0AE
:100A90000E94EB0161E089E00E94EB0161E08AE0E5
:100AA0000E94BB0161E08AE00E94BB0160E089E036
:100AB000CF910C94BB01FF920F931F93CF93DF93C1
:100AC00000D01F92CDB7DEB78B838B01F42E8091BF
:100AD0004603811105C00E940E0581E08093460304
:100AE0000E9419040E940A0562E08CE20E946004E0
:100AF00040E061E0CE0103960E94B80482E00E94CB
:100B0000490480E00E9449048F2D0E9449048EEE22
:100B10000E9449040E9419041A821982AE014F5F93
:100B20005F4FBE016E5F7F4F8CE20E94070A0E94FA
:100B300006058981882329F08A81F801808381E074
:100B400001C080E00F900F900F90DF91CF911F9127
:100B50000F91FF9008950F931F93CF93DF931F92F0
:100B6000CDB7DEB78C01DC01ED91FC910084F185FD
:100B7000E02D0995892B59F041E0BE016F5F7F4F51
:100B8000F80184850E945B05898190E002C08FEFA7
:100B90009FEF0F90DF91CF911F910F9108950F93C9
:100BA0001F93CF93DF931F92CDB7DEB78C01DC018B
:100BB000ED91FC910084F185E02D0995892B59F088
:100BC00040E0BE016F5F7F4FF80184850E945B05A6
:100BD000898190E002C08FEF9FEF0F90DF91CF915E
:100BE0001F910F910895CF93DF9300D01F92CDB73F
:100BF000DEB7FC0184858F3F49F18B8380914603EA
:100C0000811105C00E940E0581E0809346030E9479
:100C100019040E940A0561E08FE20E94600441E02D
:100C200061E0CE0103960E94B8040E9419041A8262
:100C30001982AE014F5F5F4FBE016E5F7F4F8FE243
:100C40000E94AA090E9406058A8101C080E00F90D7
:100C50000F900F90DF91CF910895FC0124852F3FD5
:100C600071F00E94F305843038F09BEF980F9330B9
:100C700018F091E08A3009F490E0892F089580E01F
:100C80000895EF92FF920F931F93CF93DF9300D0BD
:100C90001F92CDB7DEB7FC0194859F3F09F44AC08F
:100CA0008F019B8380914603811105C00E940E0530
:100CB00081E0809346030E9419040E940A0561E0C6
:100CC0008EE20E94600441E061E0CE0103960E9442
:100CD000B8040E9419041A821982AE014F5F5F4F57
:100CE000BE016E5F7F4F8EE20E94AA090E94060538
:100CF000D8011C96EC91F0E0EE0FFF1FE050FF4F83
:100D00008FEF9FEF9183808392E3E92EF12CC8014E
:100D10000E94F305882359F0B1E0EB1AF10839F08D
:100D200064E670E080E090E00E948903F0CF8FEFEE
:100D3000F80184870F900F900F90DF91CF911F9152
:100D40000F91FF90EF900895CF92DF92EF92FF9274
:100D50000F931F93CF93DF9300D0CDB7DEB76B0116
:100D60008A01FC0184858A8380914603811105C034
:100D70000E940E0581E0809346030E9419040E94A0
:100D80000A0561E085E40E94600441E061E070E0F2
:100D9000CE0102960E947C040E94190419820E94CE
:100DA0009109892B49F1CE0101960E94E8048981BD
:100DB000853C11F50E94F7048823D1F08FEF0E9443
:100DC0004904082F8FEF0E944904002E000C110BDC
:100DD000102F0027082B7601C00ED11EEC14FD0445
:100DE00039F08FEF0E944904F70181937F01F6CF1C
:100DF000CE0101960E94E8040E94060581E090E081
:100E0000012B11F080E090E09195819591090F9070
:100E10000F90DF91CF911F910F91FF90EF90DF9096
:100E2000CF900895CF93DF9300D000D0CDB7DEB739
:100E3000FC0184858F3F59F18C8380914603811199
:100E400005C00E940E0581E0809346030E941904AC
:100E50000E940A0561E08BE20E94600441E061E0CB
:100E6000CE0104960E94B8040E9419041B821A82C3
:100E70001982AE014D5F5F4FBE016F5F7F4F8BE206
:100E80000E94AA090E94060589819A8102C080E019
:100E900090E00F900F900F900F90DF91CF910895F9
:100EA000BF92CF92DF92EF92FF920F931F93CF9357
:100EB000DF9300D000D0CDB7DEB76C018B017A0193
:100EC000FC019485943040F081E090E0F60193833A
:100ED000828380E090E07CC0452BB1F39C838091BD
:100EE0004603811105C00E940E0581E080934603F0
:100EF0000E9419040E940A0562E084E40E946004D2
:100F000040E061E070E0CE0104960E947C0441E084
:100F1000B701C8010E947C040E9419041A82198238
:100F2000AE014F5F5F4FBE016E5F7F4F84E40E9452
:100F3000070A0E9406058981882331F28A8181305F
:100F400019F6F60184858B831A82198200E010E07D
:100F5000BB24B39480914603811104C00E940E0506
:100F6000B09246030E9419040E940A0561E08AE2D9
:100F70000E94600441E061E0CE0103960E94B80443
:100F80000E941904AE014F5F5F4FBE016E5F7F4F3D
:100F90008AE20E94AA090E9406058A81811109C07D
:100FA0000F5F1F4F64E670E080E090E00E948903CD
:100FB00002C000E010E08A81882331F00931110578
:100FC00009F482CFC70104C00931110518F2F6CF28
:100FD0000F900F900F900F90DF91CF911F910F9175
:100FE000FF90EF90DF90CF90BF900895CF92DF9267
:100FF000EF92FF920F931F93CF93DF93CDB7DEB79E
:1010000028970FB6F894DEBF0FBECDBF8C01F42E2B
:10101000E52EE0E0F1E020E030E081919191019651
:1010200031F02F5F3F4F24303105B9F72FEFD80152
:101030001C962C932F3F09F473C0FB01828193818E
:10104000A481B58189839A83AB83BC8328871F825F
:1010500080914603811105C00E940E0581E08093B6
:1010600046030E9419040E940A0564E08DE20E9472
:10107000600440E064E0CE0101960E94B80482E082
:101080000E9449048E2D0E9449048F2D0E9449041C
:1010900040E061E0CE0108960E94B80441E061E0C2
:1010A000CE0107960E94B8040E9419041E821D8278
:1010B000AE014B5F5F4FBE016A5F7F4F8DE20E94C2
:1010C000AA090E940605D8011C968C9190E0FC01AB
:1010D000EE0FFF1FE050FF4F918380830E94C303F8
:1010E0006B017C01D801ED91FC910688F789E02D18
:1010F000C801099581111DC00E94C303DC01CB0109
:101100008C199D09AE09BF0980319742A105B1052F
:1011100080F461E070E080E090E00E948903E2CF1B
:1011200066E771E081E993E00E941D0380E090E0B2
:101130000EC0D801ED91FC910688F789E02DC80119
:10114000099521E090E0811101C020E0822F2896CE
:101150000FB6F894DEBF0FBECDBFDF91CF911F91C8
:101160000F91FF90EF90DF90CF9008954F925F9294
:101170006F927F929F92AF92BF92CF92DF92EF9247
:10118000FF920F931F93CF93DF93CDB7DEB72C97CA
:101190000FB6F894DEBF0FBECDBF7C018B016A0194
:1011A00080915103811105C00E940E0581E080935A
:1011B00051030E9419040E940A0561E084E30E9421
:1011C0006004F80101900020E9F73197BF01601B2E
:1011D000710B41E0C8010E94B8040E9419041F82EB
:1011E0001982AE014F5F5F4FBE01695F7F4F84E39D
:1011F0000E94AA098C870E9406058C85811103C074
:1012000080E090E063C01AE0412C512C32010FEFD6
:10121000992493940B830C830D830E838091510347
:10122000811104C00E940E05909251030E9419047E
:101230000E940A0560E085E30E9460040E94190490
:101240001B86AE01455F5F4FBE01695F7F4F85E33F
:101250000E94AA09892B99F04F80588469847A8466
:1012600091E080E04B815C816D817E814416550662
:101270006606770609F490E0A92EB82E02C0A12CCC
:10128000B12C0E940605AB2851F4115009F4B8CFD7
:1012900068EE73E080E090E00E948903BBCF1123E9
:1012A00009F4AECFD701ED91FC910684F785E02DCE
:1012B0008BE691E09A8389834B825C826D827E8289
:1012C000A601BE016F5F7F4FC70109952C960FB62F
:1012D000F894DEBF0FBECDBFDF91CF911F910F916C
:1012E000FF90EF90DF90CF90BF90AF909F907F9056
:1012F0006F905F904F900895CF93DF93482F50E009
:1013000060E070E020E181E993E00E948602EC0158
:1013100081E993E00E9419038C0F9D1FDF91CF910B
:101320000895CF93DF93C9EED3E00E94F7048F3E78
:1013300029F0219731F0803EC1F703C08FEF9FEF76
:1013400006C021E090E0803E09F020E0822FDF918E
:10135000CF910895CF92DF92EF92FF920F931F9358
:10136000CF93DF931F92CDB7DEB7182F6B017A01B1
:1013700019820E949109892B19F480E090E02DC018
:10138000CE0101960E94E804106889818113F5CF8F
:10139000CE0101960E94E8048981813071F78FEFB8
:1013A0000E944904E114F10411F0F701808300E088
:1013B00010E0F701808190E00817190744F4C60196
:1013C000800F911F0E94E8040F5F1F4FF2CFCE01E4
:1013D00001960E94E80481E090E00F90DF91CF91A8
:1013E0001F910F91FF90EF90DF90CF900895CF93D2
:1013F000DF9361E973E00E94CF02EC0181E993E0A1
:101400000E9419038C0F9D1FDF91CF910895CF92F9
:10141000DF92EF92FF920F931F93CF93DF931F9270
:10142000CDB7DEB7F82E6B018A0119820E949109AF
:10143000892B19F480E090E02DC0CE0101960E9426
:10144000E8048F2D806899819813F4CF0E94F704E7
:10145000811107C0CE0101960E94E80481E090E06E
:1014600019C08FEF0E9449040115110511F0F80110
:1014700080837601F801808190E097012C193D0965
:10148000281739073CF78FEF0E944904F701819331
:101490007F01F0CF0F90DF91CF911F910F91FF90BF
:1014A000EF90DF90CF900895CF93DF93CDB7DEB765
:1014B00061970FB6F894DEBF0FBECDBF789484B5A8
:1014C000826084BD84B5816084BD85B5826085BD40
:1014D00085B5816085BD80916E00816080936E00CE
:1014E00010928100809181008260809381008091C0
:1014F0008100816080938100809180008160809371
:1015000080008091B10084608093B1008091B00030
:1015100081608093B00080917A00846080937A002B
:1015200080917A00826080937A0080917A00816055
:1015300080937A0080917A00806880937A0010927C
:10154000C100E091A103F091A20382E08083E091C9
:101550009D03F0919E031082E0919F03F091A00300
:101560008FEC80831092A903E091A503F091A6036C
:1015700086E08083E091A303F091A40380818061E1
:101580008083E091A303F091A4038081886080832D
:10159000E091A303F091A403808180688083E091AF
:1015A000A303F091A40380818F7D80838E010F5F60
:1015B0001F4F28E0C22E21E0D22E99249394882434
:1015C0008A9480918B0390918C03039709F488C0CF
:1015D0006AE871E081E993E00E942F0363E171E022
:1015E00081E993E00E941D03F60101900020E9F7D4
:1015F0003197CF01885091405C01E3E1F1E0019027
:101600000020E9F73197CF01835191407C0180910F
:101610005103811104C00E940E05909251030E9453
:1016200019040E940A0562E081E10E94600440E022
:101630006E2D83E191E00E94B80441E06A2D88E0BC
:1016400091E00E94B8040E9419041A861982A80128
:10165000BE01665F7F4F81E10E94AA09892B09F4D0
:101660008A860E9406058A858F3F69F19AE0F92EE5
:1016700068E873E180E090E00E9489038091510363
:10168000811104C00E940E05909251030E9419041A
:101690000E940A0560E080E20E9460040E94190432
:1016A0008A861982A801BE01665F7F4F80E20E9490
:1016B000AA090E9406058A85982F9D7F29F4FA942D
:1016C000F110D6CF01C084E090E090938C0380931A
:1016D0008B0360ED77E080E090E00E94890371CF9A
:1016E0006EEA71E081E993E00E942F0367EA71E0FE
:1016F00081E993E00E942F0380915103811105C07D
:101700000E940E0581E0809351030E9419040E94FB
:101710000A0561E083E20E9460048FEF8A8741E05E
:1017200061E0CE010A960E94B8040E941904198251
:10173000A80163E573E083E20E94AA090E940605FE
:1017400063E573E081E993E00E941D0380915103FA
:10175000811105C00E940E0581E0809351030E9413
:1017600019040E940A0561E084E20E9460048FEF80
:101770008A8741E061E0CE010A960E94B8040E9487
:1017800019041982A80163E773E084E20E94AA09A0
:101790000E940605D0907303F0907403E0907503E7
:1017A000C0907603B0907703A09078036EEC71E060
:1017B00081E993E00E942F034A2D50E060E070E041
:1017C00020E181E993E00E9486026CEE71E081E9FC
:1017D00093E00E942F034B2D50E060E070E020E189
:1017E00081E993E00E9486026CEE71E081E993E06A
:1017F0000E942F034C2D50E060E070E020E181E971
:1018000093E00E9486026CEE71E081E993E00E9411
:101810002F034E2D50E060E070E020E181E993E07D
:101820000E9486026CEE71E081E993E00E942F0332
:101830004F2D50E060E070E020E181E993E00E94EC
:1018400086026CEE71E081E993E00E942F038D2DFA
:101850000E947C0980915103811105C00E940E05F0
:1018600081E0809351030E9419040E940A0561E0FF
:1018700085E20E9460048FEF888B41E061E0CE0139
:1018800040960E94B8040E9419041A8619821A828E
:101890001B821C82AE01465F5F4FB80185E20E9449
:1018A000AA090E940605C980DA80EB80FC8066EDFB
:1018B00071E081E993E00E942F03F7FE14C0E091EC
:1018C0009103F09192030190F081E02D6DE281E9A6
:1018D00093E0099544275527BA014C195D096E0913
:1018E0007F092AE003C02AE0B701A60181E993E05D
:1018F0000E94860281E993E00E94190380915103BE
:10190000811105C00E940E0581E0809351030E9461
:1019100019040E940A0561E086E20E9460048FEFCC
:10192000888B41E061E0CE0140960E94B8040E949D
:1019300019041A861982AE01465F5F4FB80186E22C
:101940000E94AA090E940605F9806EEE71E081E905
:1019500093E00E942F038F2D0E947C0981E993E080
:101960000E9419038BE691E09B878A871C861D865F
:101970001E861F8689E0F80111928A95E9F781E8B1
:1019800093E09B838A838DE793E09E838D8389E731
:1019900093E09987888780915103811105C00E9447
:1019A0000E0581E0809351030E9419040E940A05EC
:1019B00061E081E20E9460048FEF898B41E061E089
:1019C000CE0141960E94B8040E941904188A0E9410
:1019D0009109892BE1F1CE0140960E94E8048889A3
:1019E000813AA9F50E94F704382E882381F1780105
:1019F000612C712C882E912C681479040CF58FEFD2
:101A00000E944904F7018083412C512CC82ED12C0F
:101A10004C145D0474F4F701A180B280A40CB51CD1
:101A20008FEF0E944904F5018083FFEF4F1A5F0A90
:101A3000EFCF2FEF621A720A83E0E80EF11CDCCFC1
:101A400093E0391204C0CE0140960E94E8040E943F
:101A500006058091810390918203A0918303B09148
:101A600084038C879D87AE87BF876FEF71E081E924
:101A700093E00E942F03CE010A960E94F709CE013F
:101A80000A960E94F70980915103811105C00E94B6
:101A90000E0581E0809351030E9419040E940A05FB
:101AA00061E082E20E9460048FEF888B41E061E098
:101AB000CE0140960E94B8040E9419041982A80120
:101AC00065E873E082E20E94AA090E940605E090A0
:101AD00085031091860300918703F0908803D090CE
:101AE0008903C0908A036CE072E081E993E00E9470
:101AF0002F034C2D50E060E070E020E181E993E09D
:101B00000E9486026CEE71E081E993E00E942F034F
:101B10004D2D50E060E070E020E181E993E00E940B
:101B200086026CEE71E081E993E00E942F034F2D55
:101B300050E060E070E020E181E993E00E948602DD
:101B40006CEE71E081E993E00E942F03402F50E09A
:101B500060E070E020E181E993E00E9486026CEE93
:101B600071E081E993E00E942F03412F50E060E093
:101B700070E020E181E993E00E9486026CEE71E062
:101B800081E993E00E942F038E2D0E947C098EE252
:101B900094E00E941207892B51F08EE294E00E949B
:101BA000CF05682F81E993E00E941F01F0CF0E94CA
:101BB000C30300918D0310918E0320918F03309108
:101BC0009003DC01CB01801B910BA20BB30B813185
:101BD0009742A105B10508F482C081E993E00E9413
:101BE00019038EE294E00E9441066FE570E080E008
:101BF00090E00E9473108C01009751F0FC0110825C
:101C00006AE172E00E944B118EE5E82EF12C02C0D1
:101C1000E12CF12C40E550E061E271E08EE294E0CD
:101C20000E94B608892B09F451C069E772E081E986
:101C300093E00E941D0368E872E08EE294E00E9447
:101C40001D0365EA72E08EE294E00E941D036AEBD8
:101C500072E08EE294E00E941D0369ED72E08EE274
:101C600094E00E941D0360E173E08EE294E00E9424
:101C70002F03A70160E070E02AE08EE294E00E946A
:101C800086028EE294E00E9419038EE294E00E94A4
:101C90001903E0912E04F0912F040280F381E02DCE
:101CA000A701B8018EE294E009958EE294E00E94CB
:101CB00019030E94C30360938D0370938E03809376
:101CC0008F039093900360E273E002C064E373E0DB
:101CD00081E993E00E941D03C8010E94DB0F0E946E
:101CE000880155CFEDE3F4E08BE691E091838083AA
:101CF0001282138214821582E1E9F3E013821282C8
:101D000048EE53E060E070E0448355836683778358
:101D10002BE331E03183208325EC30E035872487C5
:101D200024EC30E03787268720EC30E0318B208BA5
:101D300021EC30E0338B228B22EC30E0358B248B8E
:101D400026EC30E0378B268B118E128E138E148E7C
:101D5000E3E4F4E09183808312821382148215827B
:101D6000E9E4F4E091838083128213821482158265
:101D7000EFE4F4E09183808312821382148215824F
:101D8000E5E5F4E091838083128213821482158248
:101D9000EBE5F4E091838083128213821482158232
:101DA000E1E6F4E09183808312821382148215822B
:101DB000EEE2F4E0138212824483558366837783D4
:101DC0008DE491E09183808384E0848708952F924D
:101DD0003F924F925F926F927F928F929F92AF92BB
:101DE000BF92CF92DF92EF92FF920F931F93CF9308
:101DF000DF93CDB7DEB7CA1BDB0B0FB6F894DEBF9F
:101E00000FBECDBF09942A88398848885F846E84C4
:101E10007D848C849B84AA84B984C884DF80EE800E
:101E2000FD800C811B81AA81B981CE0FD11D0FB617
:101E3000F894DEBF0FBECDBFED010895A1E21A2ECA
:101E4000AA1BBB1BFD010DC0AA1FBB1FEE1FFF1F5E
:101E5000A217B307E407F50720F0A21BB30BE40BAE
:101E6000F50B661F771F881F991F1A9469F76095F5
:101E70007095809590959B01AC01BD01CF010895AF
:101E8000EE0FFF1F0590F491E02D0994CF93DF939F
:101E90008230910510F482E090E0E0916904F091C5
:101EA0006A0420E030E0C0E0D0E0309711F14081DA
:101EB000518148175907C0F04817590761F48281CA
:101EC0009381209719F09B838A832BC090936A0497
:101ED0008093690426C02115310519F04217530774
:101EE00018F49A01BE01DF01EF010280F381E02DB9
:101EF000DCCF2115310509F1281B390B24303105C0
:101F000090F412968D919C9113976115710521F0B3
:101F1000FB019383828304C090936A0480936904D5
:101F2000FD01329644C0FD01E20FF31F81939193AE
:101F3000225031092D933C933AC02091670430918F
:101F40006804232B41F42091330130913401309304
:101F500068042093670420913101309132012115EA
:101F6000310541F42DB73EB740913501509136010E
:101F7000241B350BE0916704F0916804E217F30726
:101F8000A0F42E1B3F0B2817390778F0AC014E5FE9
:101F90005F4F2417350748F04E0F5F1F50936804BA
:101FA000409367048193919302C0E0E0F0E0CF0199
:101FB000DF91CF9108950F931F93CF93DF930097F5
:101FC00009F48CC0FC0132971382128200916904DB
:101FD00010916A040115110581F420813181820F6D
:101FE000931F20916704309168042817390779F509
:101FF000F0936804E093670471C0D80140E050E0BA
:10200000AE17BF0750F412962D913C911397AD0176
:102010002115310509F1D901F3CF9D01DA0133838F
:10202000228360817181860F971F8217930769F45D
:10203000EC0128813981260F371F2E5F3F4F3183F6
:1020400020838A819B8193838283452B29F4F0939B
:102050006A04E093690442C01396FC93EE931297CE
:10206000ED01499159919E01240F351FE217F307A5
:1020700071F480819181840F951F029611969C9333
:102080008E938281938113969C938E931297E0E0B6
:10209000F0E0D80112968D919C911397009719F05A
:1020A000F8018C01F6CF8D919C9198012E5F3F4FE6
:1020B000820F931F20916704309168042817390715
:1020C00069F4309729F410926A041092690402C0EE
:1020D000138212821093680400936704DF91CF91FA
:1020E0001F910F910895A0E0B0E0E9E7F0E10C94B2
:1020F000EB0EEC01009721F4CB010E94460FB8C013
:10210000FC01E60FF71F9C0122503109E217F3078B
:1021100008F4ACC0D9010D911C911197061717074F
:10212000B0F00530110508F49FC0C8010497861768
:10213000970708F499C002501109061B170B019369
:1021400011936D937C93CF010E94DB0F8DC05B01D7
:10215000A01AB10A4C01800E911EA0916904B091A1
:102160006A0440E050E0E12CF12C109709F44AC0D9
:10217000A815B905D1F56D907C901197630182E0A7
:10218000C80ED11CCA14DB0480F1A3014A195B09F3
:102190006A0182E0C80ED11C1296BC901297139669
:1021A000AC91B5E0CB16D10440F0B282A383518349
:1021B0004083D9016D937C930AC00E5F1F4FC3010A
:1021C000800F911FF90191838083EB2DFA2FE11489
:1021D000F10431F0D7011396FC93EE93129744C0AB
:1021E000F0936A04E09369043FC08D919C9111972C
:1021F0004817590708F4AC017D0112960D90BC9167
:10220000A02DB3CF8091670490916804881599053B
:10221000E1F446175707C8F48091310190913201DB
:10222000009741F48DB79EB740913501509136012A
:10223000841B950BE817F907C8F4F0936804E09342
:102240006704F901718360830FC0CB010E94460FC0
:102250007C01009759F0A801BE010E944211CE01F5
:102260000E94DB0FC70104C0CE0102C080E090E0F5
:10227000CDB7DEB7EEE00C94070F81E090E0F89464
:102280000C945211FB01DC0102C001900D924150EF
:102290005040D8F70895FB01DC0101900D92002019
:0822A000E1F70895F894FFCF67
:1022A800FFFFFFFFFFFFFFFF613131313131313176
:1022B800313100436F616C616D6F76656D656E7469
:1022C800006170692E617274696B2E636C6F75643E
:1022D8000000006B048000000000001F018C00B7A4
:1022E800006601E800C600DA000000000055025050
:1022F800076C0254021207CF05AB05F607B608A40F
:102308000641062D064C0200000000CF0200000026
:10231800006F020D0A004E6F20536F636B657420C7
:10232800617661696C61626C6500417474656D7099
:1023380074696E6720746F20636F6E6E65637420B6
:10234800746F2057504120535349443A2000596F25
:102358007527726520636F6E6E656374656420749B
:102368006F20746865206E6574776F726B004253D6
:102378005349443A20007369676E616C2073747224
:10238800656E677468202852535349293A00456E90
:102398006372797074696F6E20547970653A004978
:1023A8005020416464726573733A20004D414320A4
:1023B800616464726573733A20007B22646174619E
:1023C800223A207B2274656D70657261747572653E
:1023D800223A20223232227D2C2022736469642220
:1023E8003A20223566623365306238386661623475
:1023F800366464396631353235316630376265386E
:10240800643966222C202274797065223A20226D64
:10241800657373616765227D00436F6E6E656374D3
:10242800656420312E2E2E00504F5354202F7631C4
:102438002E312F6D6573736167657320485454504E
:102448002F312E3100486F73743A6170692E6172B2
:1024580074696B2E636C6F756400436F6E74656E80
:10246800742D547970653A206170706C6963617479
:10247800696F6E2F6A736F6E00417574686F726949
:102488007A6174696F6E3A204265617265722036AE
:102498006366383266653730623464346239646240
:1024A80066336638363962333962633637326600E6
:1024B800436F6E74656E742D4C656E6774683A0070
:1024C8005472616E73666572207465726D696E61AF
:1024D80074656400436F6E6E656374696F6E206621
:0624E80061696C656400EF
:107E0000112484B714BE81FFF0D085E080938100F7
:107E100082E08093C00088E18093C10086E0809377
:107E2000C20080E18093C4008EE0C9D0259A86E02C
:107E300020E33CEF91E0309385002093840096BBD3
:107E4000B09BFECF1D9AA8958150A9F7CC24DD24C4
:107E500088248394B5E0AB2EA1E19A2EF3E0BF2EE7
:107E6000A2D0813461F49FD0082FAFD0023811F036
:107E7000013811F484E001C083E08DD089C08234E0
:107E800011F484E103C0853419F485E0A6D080C0E4
:107E9000853579F488D0E82EFF2485D0082F10E0AE
:107EA000102F00270E291F29000F111F8ED06801E7
:107EB0006FC0863521F484E090D080E0DECF843638
:107EC00009F040C070D06FD0082F6DD080E0C81688
:107ED00080E7D80618F4F601B7BEE895C0E0D1E017
:107EE00062D089930C17E1F7F0E0CF16F0E7DF06D8
:107EF00018F0F601B7BEE89568D007B600FCFDCFD4
:107F0000A601A0E0B1E02C9130E011968C91119780
:107F100090E0982F8827822B932B1296FA010C0160
:107F200087BEE89511244E5F5F4FF1E0A038BF0790
:107F300051F7F601A7BEE89507B600FCFDCF97BE46
:107F4000E89526C08437B1F42ED02DD0F82E2BD052
:107F50003CD0F601EF2C8F010F5F1F4F84911BD097
:107F6000EA94F801C1F70894C11CD11CFA94CF0C13
:107F7000D11C0EC0853739F428D08EE10CD085E9AC
:107F80000AD08FE07ACF813511F488E018D01DD067
:107F900080E101D065CF982F8091C00085FFFCCF94
:107FA0009093C60008958091C00087FFFCCF809118
:107FB000C00084FD01C0A8958091C6000895E0E648
:107FC000F0E098E1908380830895EDDF803219F02E
:107FD00088E0F5DFFFCF84E1DECF1F93182FE3DFCA
:107FE0001150E9F7F2DF1F91089580E0E8DFEE27F6
:047FF000FF270994CA
:027FFE00040479
:0400000300007E007B
:00000001FF
